{
  "contractName": "EnergyTrading",
  "abi": [
    {
      "inputs": [],
      "payable": false,
      "stateMutability": "nonpayable",
      "type": "constructor"
    },
    {
      "constant": false,
      "inputs": [
        {
          "internalType": "address",
          "name": "household",
          "type": "address"
        }
      ],
      "name": "registerHousehold",
      "outputs": [],
      "payable": false,
      "stateMutability": "nonpayable",
      "type": "function"
    },
    {
      "constant": false,
      "inputs": [
        {
          "internalType": "address",
          "name": "mintTo",
          "type": "address"
        },
        {
          "internalType": "uint256",
          "name": "amount",
          "type": "uint256"
        }
      ],
      "name": "mintEuroToken",
      "outputs": [],
      "payable": false,
      "stateMutability": "nonpayable",
      "type": "function"
    },
    {
      "constant": true,
      "inputs": [
        {
          "internalType": "address",
          "name": "household",
          "type": "address"
        }
      ],
      "name": "balanceOf",
      "outputs": [
        {
          "internalType": "uint256",
          "name": "",
          "type": "uint256"
        }
      ],
      "payable": false,
      "stateMutability": "view",
      "type": "function"
    },
    {
      "constant": false,
      "inputs": [
        {
          "internalType": "bool[]",
          "name": "roles",
          "type": "bool[]"
        }
      ],
      "name": "initializeRoles",
      "outputs": [],
      "payable": false,
      "stateMutability": "nonpayable",
      "type": "function"
    },
    {
      "constant": false,
      "inputs": [
        {
          "internalType": "uint256[]",
          "name": "results",
          "type": "uint256[]"
        }
      ],
      "name": "storeClearingResults",
      "outputs": [],
      "payable": false,
      "stateMutability": "nonpayable",
      "type": "function"
    },
    {
      "constant": true,
      "inputs": [
        {
          "internalType": "uint256",
          "name": "period",
          "type": "uint256"
        },
        {
          "internalType": "address",
          "name": "householdAddress",
          "type": "address"
        }
      ],
      "name": "getTotalPrice",
      "outputs": [
        {
          "internalType": "uint256",
          "name": "",
          "type": "uint256"
        }
      ],
      "payable": false,
      "stateMutability": "view",
      "type": "function"
    },
    {
      "constant": false,
      "inputs": [],
      "name": "receivedEnergy",
      "outputs": [],
      "payable": false,
      "stateMutability": "nonpayable",
      "type": "function"
    }
  ],
  "bytecode": "0x60806040526004600360006101000a81548160ff021916908360ff1602179055506000600360016101000a81548160ff021916908360ff1602179055506001600360026101000a81548160ff02191690831515021790555060006004556040518060800160405280600060ff168152602001600060ff168152602001600060ff168152602001600060ff1681525060059060046200009f9291906200013b565b506000600660006101000a81548160ff021916908360ff1602179055506000600a60006101000a81548160ff021916908360ff1602179055506000600c556000600d556000600e55348015620000f457600080fd5b50336000806101000a81548173ffffffffffffffffffffffffffffffffffffffff021916908373ffffffffffffffffffffffffffffffffffffffff1602179055506200021c565b82805482825590600052602060002090601f01602090048101928215620001d65791602002820160005b83821115620001a557835183826101000a81548160ff021916908360ff160217905550926020019260010160208160000104928301926001030262000165565b8015620001d45782816101000a81549060ff0219169055600101602081600001049283019260010302620001a5565b505b509050620001e59190620001e9565b5090565b6200021991905b808211156200021557600081816101000a81549060ff021916905550600101620001f0565b5090565b90565b611156806200022c6000396000f3fe608060405234801561001057600080fd5b506004361061007d5760003560e01c80637fdafd051161005b5780637fdafd05146101f45780639ad156be146101fe578063cc109eae14610242578063fedde1c7146102905761007d565b80630c127b27146100825780632ebb15b6146100e457806370a082311461019c575b600080fd5b6100ce6004803603604081101561009857600080fd5b8101908080359060200190929190803573ffffffffffffffffffffffffffffffffffffffff169060200190929190505050610348565b6040518082815260200191505060405180910390f35b61019a600480360360208110156100fa57600080fd5b810190808035906020019064010000000081111561011757600080fd5b82018360208201111561012957600080fd5b8035906020019184602083028401116401000000008311171561014b57600080fd5b919080806020026020016040519081016040528093929190818152602001838360200280828437600081840152601f19601f8201169050808301925050505050505091929192905050506103c2565b005b6101de600480360360208110156101b257600080fd5b81019080803573ffffffffffffffffffffffffffffffffffffffff1690602001909291905050506104be565b6040518082815260200191505060405180910390f35b6101fc610507565b005b6102406004803603602081101561021457600080fd5b81019080803573ffffffffffffffffffffffffffffffffffffffff16906020019092919050505061079e565b005b61028e6004803603604081101561025857600080fd5b81019080803573ffffffffffffffffffffffffffffffffffffffff169060200190929190803590602001909291905050506108b7565b005b610346600480360360208110156102a657600080fd5b81019080803590602001906401000000008111156102c357600080fd5b8201836020820111156102d557600080fd5b803590602001918460208302840111640100000000831117156102f757600080fd5b919080806020026020016040519081016040528093929190818152602001838360200280828437600081840152601f19601f820116905080830192505050505050509192919290505050610961565b005b600080600260008473ffffffffffffffffffffffffffffffffffffffff1673ffffffffffffffffffffffffffffffffffffffff168152602001908152602001600020549050600060026001805490508602029050600060028302820190506000600160028502840101905080820294505050505092915050565b600360009054906101000a900460ff1660ff168151146103e157600080fd5b80600960003373ffffffffffffffffffffffffffffffffffffffff1673ffffffffffffffffffffffffffffffffffffffff1681526020019081526020016000209080519060200190610434929190610ee1565b5060008090505b81518110156104ba5781818151811061045057fe5b6020026020010151156104ad576005818154811061046a57fe5b906000526020600020906020918282040191900681819054906101000a900460ff168092919060010191906101000a81548160ff021916908360ff160217905550505b808060010191505061043b565b5050565b6000600760008373ffffffffffffffffffffffffffffffffffffffff1673ffffffffffffffffffffffffffffffffffffffff168152602001908152602001600020549050919050565b600960003373ffffffffffffffffffffffffffffffffffffffff1673ffffffffffffffffffffffffffffffffffffffff168152602001908152602001600020600360019054906101000a900460ff1660ff168154811061056357fe5b90600052602060002090602091828204019190069054906101000a900460ff1661058c57600080fd5b60006105aa600360019054906101000a900460ff1660ff1633610348565b905080600760003373ffffffffffffffffffffffffffffffffffffffff1673ffffffffffffffffffffffffffffffffffffffff1681526020019081526020016000206000828254039250508190555080600c600082825401925050819055506006600081819054906101000a900460ff168092919060010191906101000a81548160ff021916908360ff160217905550506005600360019054906101000a900460ff1660ff168154811061065a57fe5b90600052602060002090602091828204019190069054906101000a900460ff1660ff16600660009054906101000a900460ff1660ff16141561079b5761069e610b07565b6003600181819054906101000a900460ff168092919060010191906101000a81548160ff021916908360ff16021790555050600360009054906101000a900460ff1660ff16600360019054906101000a900460ff1660ff16141561079a576001600360026101000a81548160ff0219169083151502179055506040518060800160405280600060ff168152602001600060ff168152602001600060ff168152602001600060ff168152506005906004610758929190610f87565b506000600660006101000a81548160ff021916908360ff1602179055506000600a60006101000a81548160ff021916908360ff160217905550610799610c66565b5b5b50565b6000809054906101000a900473ffffffffffffffffffffffffffffffffffffffff1673ffffffffffffffffffffffffffffffffffffffff163373ffffffffffffffffffffffffffffffffffffffff16146107f757600080fd5b60018190806001815401808255809150509060018203906000526020600020016000909192909190916101000a81548173ffffffffffffffffffffffffffffffffffffffff021916908373ffffffffffffffffffffffffffffffffffffffff16021790555050600454600260003373ffffffffffffffffffffffffffffffffffffffff1673ffffffffffffffffffffffffffffffffffffffff16815260200190815260200160002081905550600160046000828254019250508190555050565b6000809054906101000a900473ffffffffffffffffffffffffffffffffffffffff1673ffffffffffffffffffffffffffffffffffffffff163373ffffffffffffffffffffffffffffffffffffffff161461091057600080fd5b80600760008473ffffffffffffffffffffffffffffffffffffffff1673ffffffffffffffffffffffffffffffffffffffff168152602001908152602001600020600082825401925050819055505050565b6000600260003373ffffffffffffffffffffffffffffffffffffffff1673ffffffffffffffffffffffffffffffffffffffff1681526020019081526020016000205414156109ae57600080fd5b600360009054906101000a900460ff1660ff16600260018054905002028151146109d757600080fd5b600360029054906101000a900460ff166109f057600080fd5b80600860003373ffffffffffffffffffffffffffffffffffffffff1673ffffffffffffffffffffffffffffffffffffffff1681526020019081526020016000209080519060200190610a4392919061102e565b50600a600081819054906101000a900460ff168092919060010191906101000a81548160ff021916908360ff16021790555050600180549050600a60009054906101000a900460ff1660ff161415610b0457610a9d610d11565b15610ade576000600360026101000a81548160ff0219169083151502179055506000600360016101000a81548160ff021916908360ff160217905550610b03565b6000600a60006101000a81548160ff021916908360ff160217905550610b02610c66565b5b5b50565b60008090505b600180549050811015610c6357600060018281548110610b2957fe5b9060005260206000200160009054906101000a900473ffffffffffffffffffffffffffffffffffffffff169050600960008273ffffffffffffffffffffffffffffffffffffffff1673ffffffffffffffffffffffffffffffffffffffff168152602001908152602001600020600360019054906101000a900460ff1660ff1681548110610bb257fe5b90600052602060002090602091828204019190069054906101000a900460ff16610c55576000610bf4600360019054906101000a900460ff1660ff1683610348565b905080600760003373ffffffffffffffffffffffffffffffffffffffff1673ffffffffffffffffffffffffffffffffffffffff1681526020019081526020016000206000828254039250508190555080600c60008282540192505081905550505b508080600101915050610b0d565b50565b60008090505b600180549050811015610d0e57600060018281548110610c8857fe5b9060005260206000200160009054906101000a900473ffffffffffffffffffffffffffffffffffffffff169050600860008273ffffffffffffffffffffffffffffffffffffffff1673ffffffffffffffffffffffffffffffffffffffff1681526020019081526020016000206000610d00919061107b565b508080600101915050610c6c565b50565b600080600090505b600360009054906101000a900460ff1660ff1660026001805490500202811015610ed85760006305f5e1009050600080905060008090505b600180549050811015610e6c57600060018281548110610d6d57fe5b9060005260206000200160009054906101000a900473ffffffffffffffffffffffffffffffffffffffff1690506060600860008373ffffffffffffffffffffffffffffffffffffffff1673ffffffffffffffffffffffffffffffffffffffff168152602001908152602001600020805480602002602001604051908101604052809291908181526020018280548015610e2557602002820191906000526020600020905b815481526020019060010190808311610e11575b505050505090506000818781518110610e3a57fe5b6020026020010151905085811015610e50578095505b84811115610e5c578094505b5050508080600101915050610d51565b50600060028481610e7957fe5b06148015610e8a5750600d54828203115b15610e9b5760009350505050610ede565b600060028481610ea757fe5b06148015610eb85750600e54828203115b15610ec95760009350505050610ede565b50508080600101915050610d19565b50600190505b90565b82805482825590600052602060002090601f01602090048101928215610f765791602002820160005b83821115610f4757835183826101000a81548160ff0219169083151502179055509260200192600101602081600001049283019260010302610f0a565b8015610f745782816101000a81549060ff0219169055600101602081600001049283019260010302610f47565b505b509050610f83919061109c565b5090565b82805482825590600052602060002090601f0160209004810192821561101d5791602002820160005b83821115610fee57835183826101000a81548160ff021916908360ff1602179055509260200192600101602081600001049283019260010302610fb0565b801561101b5782816101000a81549060ff0219169055600101602081600001049283019260010302610fee565b505b50905061102a91906110cc565b5090565b82805482825590600052602060002090810192821561106a579160200282015b8281111561106957825182559160200191906001019061104e565b5b50905061107791906110fc565b5090565b508054600082559060005260206000209081019061109991906110fc565b50565b6110c991905b808211156110c557600081816101000a81549060ff0219169055506001016110a2565b5090565b90565b6110f991905b808211156110f557600081816101000a81549060ff0219169055506001016110d2565b5090565b90565b61111e91905b8082111561111a576000816000905550600101611102565b5090565b9056fea265627a7a72315820f407468c8347371b9a9d087968624fa92daa7e80eb1aa16ec97aad2e67af7f6664736f6c63430005100032",
  "source": "pragma solidity >=0.4.22 <0.6.0;\n\ncontract EnergyTrading {\n    address ttp;\n    address[] households;     // the participating households.\n    mapping(address => uint256) private _householdIndices;\n    \n    uint8 totalPeriods = 4;   // the total number of periods in each horizon\n    uint8 currentPeriod = 0;  // the current period we are in\n    bool isClearing = true;   // whether we are clearing the market or trading\n    uint256 totalHouseholds = 0;\n    uint8[] expectedTransfers = [0, 0, 0, 0];  // how many energy transfers we expect in each period\n    uint8 transfersThisPeriod = 0;  // the number of transfers we had in this round\n    \n    mapping (address => uint256) private _euroTokenBalances;\n    mapping (address => uint256[]) private _clearingResults;\n    mapping (address => bool[]) private _roles;  // true if the user is a buyer in this round\n    uint8 clearingResultsReceived = 0;\n    uint256[] finalClearingResults;\n    uint256 poolBalance = 0;\n    \n    uint256 maxDeltaQuantity = 0;\n    uint256 maxDeltaPrice = 0;\n\n    constructor() public {\n        ttp = msg.sender;\n    }\n    \n    function registerHousehold(address household) public {\n        require(msg.sender == ttp);\n        households.push(household);\n        _householdIndices[msg.sender] = totalHouseholds;\n        totalHouseholds += 1;\n    }\n    \n    function mintEuroToken(address mintTo, uint256 amount) public {\n        require(msg.sender == ttp);\n        _euroTokenBalances[mintTo] += amount;\n    }\n    \n    function balanceOf(address household) public view returns (uint256) {\n        return _euroTokenBalances[household];\n    }\n    \n    function initializeRoles(bool[] memory roles) public {\n        require(roles.length == totalPeriods);\n        _roles[msg.sender] = roles;\n        \n        for (uint i = 0; i < roles.length; i++) {\n            if(roles[i]) {\n                expectedTransfers[i]++;\n            }\n        }\n    }\n    \n    function storeClearingResults(uint256[] memory results) public {\n        require(_householdIndices[msg.sender] != 0);\n        require(results.length == households.length * 2 * totalPeriods);\n        require(isClearing);\n        _clearingResults[msg.sender] = results;\n        clearingResultsReceived++;\n        \n        if(clearingResultsReceived == households.length) {\n            if(validateAllClearingResults()) {\n                // move to the trading horizon\n                isClearing = false;\n                currentPeriod = 0;\n            } else {\n                // the clearing results are not valid\n                clearingResultsReceived = 0;\n                resetClearingResults();\n            }\n        }\n    }\n    \n    function resetClearingResults() private {\n        for(uint householdIndex = 0; householdIndex < households.length; householdIndex++) {\n            address householdAddress = households[householdIndex];\n            delete _clearingResults[householdAddress];\n        }\n    }\n    \n    function validateAllClearingResults() private returns (bool) {\n        // validate all clearing results by iterating through the items in the result\n        for(uint i = 0; i < households.length * 2 * totalPeriods; i++) {\n            uint256 minValue = 100000000;\n            uint256 maxValue = 0;\n            for(uint householdIndex = 0; householdIndex < households.length; householdIndex++) {\n                address householdAddress = households[householdIndex];\n                uint256[] memory clearingResult = _clearingResults[householdAddress];\n                uint256 value = clearingResult[i];\n                if(value < minValue) { minValue = value; }\n                if(value > maxValue) { maxValue = value; }\n            }\n            \n            if(i % 2 == 0 && maxValue - minValue > maxDeltaQuantity) { // quantity\n                return false;\n            }\n            if(i % 2 == 0 && maxValue - minValue > maxDeltaPrice) { // price\n                return false;\n            }\n        }\n        \n        return true;\n    }\n    \n    function getTotalPrice(uint256 period, address householdAddress) public view returns (uint256) {\n        uint256 householdIndex = _householdIndices[householdAddress];\n        uint256 startIndex = period * households.length * 2;\n        uint256 quantity = startIndex + householdIndex * 2;\n        uint256 price = startIndex + householdIndex * 2 + 1;\n        return quantity * price;\n    }\n    \n    function receivedEnergy() public {\n        require(_roles[msg.sender][currentPeriod]);  // make sure the sender is an energy buyer in the current round\n        uint256 price = getTotalPrice(currentPeriod, msg.sender);\n        _euroTokenBalances[msg.sender] -= price;\n        poolBalance += price;\n        transfersThisPeriod++;\n        \n        if(transfersThisPeriod == expectedTransfers[currentPeriod]) {\n            redistributePoolFunds();\n            currentPeriod++;\n            if(currentPeriod == totalPeriods) {\n                isClearing = true;\n                expectedTransfers = [0, 0, 0, 0];\n                transfersThisPeriod = 0;\n                clearingResultsReceived = 0;\n                resetClearingResults();\n            }\n        }\n    }\n    \n    function redistributePoolFunds() private {\n        // redistribute pool funds over all sellers\n        for(uint householdIndex = 0; householdIndex < households.length; householdIndex++) {\n            address householdAddress = households[householdIndex];\n            if(!_roles[householdAddress][currentPeriod]) {\n                uint256 price = getTotalPrice(currentPeriod, householdAddress);\n                _euroTokenBalances[msg.sender] -= price;\n                poolBalance += price;\n            }\n        }\n    }\n}\n",
  "sourcePath": "/Users/martijndevos/Documents/energy-trading-smart-contract/contracts/energytrading.sol",
  "compiler": {
    "name": "solc",
    "version": "0.5.16+commit.9c3226ce.Emscripten.clang"
  },
  "schemaVersion": "3.0.22",
  "updatedAt": "2020-01-31T09:37:55.292Z",
  "networkType": "ethereum",
  "devdoc": {
    "methods": {}
  },
  "userdoc": {
    "methods": {}
  }
}